:020000040800F2
:10000000D04C0020690200082D2900082F29000883
:1000100033290008372900083B29000800000000A8
:100020000000000000000000000000003F29000860
:100030004129000800000000F71F0108058300089F
:10004000830200088302000883020008830200087C
:10005000830200088302000883020008830200086C
:10006000830200088302000883020008830200085C
:10007000830200088302000883020008830200084C
:10008000830200088302000883020008830200083C
:10009000830200088302000883020008830200082C
:1000A000552900085729000859290008830200082B
:1000B00043290008452900084D290008830200084B
:1000C00083020008830200088302000883020008FC
:1000D00083020008A5850008395F00088302000834
:1000E00083020008830200088302000883020008DC
:1000F00083020008830200088302000883020008CC
:1001000083020008830200088302000883020008BB
:1001100083020008F97000085B29000883020008C8
:10012000830200088302000883020008830200089B
:10013000830200088302000883020008830200088B
:10014000830200088302000883020008830200087B
:10015000830200088302000883020008830200086B
:10016000830200088302000883020008830200085B
:10017000830200088302000883020008830200084B
:10018000830200088302000800F002F800F05CF827
:100190000AA090E8000C82448344AAF10107DA45E2
:1001A00001D100F051F8AFF2090EBAE80F0013F0D8
:1001B000010F18BFFB1A43F001031847D82B0100A9
:1001C000F82B01000A444FF0000C10F8013B13F02B
:1001D000070408BF10F8014B1D1108BF10F8015BA0
:1001E000641E05D010F8016B641E01F8016BF9D193
:1001F00013F0080F1EBF10F8014BAD1C0C1B09D1EA
:100200006D1E58BF01F801CBFAD505E014F8016B5B
:1002100001F8016B6D1EF9D59142D6D370470000ED
:100220000023002400250026103A28BF78C1FBD8FF
:10023000520728BF30C148BF0B6070471FB512F08E
:10024000CAFB1FBD10B510BD11F08AFE1146FFF7A5
:10025000F5FF02F099FA11F0A8FE03B4FFF7F2FFE0
:1002600003BC08F0E1F8000009488047094800474E
:10027000FEE7FEE7FEE7FEE7FEE7FEE7FEE7FEE756
:10028000FEE7FEE704480549054A064B70470000B3
:100290008303000889010008D0460020D04C0020CC
:1002A000D0480020D04800200CB5002001900090DC
:1002B0007548006840F480307349086000BF724898
:1002C000006800F4003000900198401C01900098F4
:1002D00018B90198B0F5A04FF1D16B48006810F43F
:1002E000003F02D00120009001E000200090009823
:1002F000012845D164484030006840F08050624990
:10030000403108606148006840F440405F4908603F
:100310005D48083000685C4908310860084600689C
:1003200040F4004008600846006840F4A0500860AF
:100330005748091F0860081F006840F08070091FB7
:10034000086000BF5048006810F0007FFAD040F20B
:100350000570504908604C480830006820F00300E0
:100360004949083108600846006840F0020008600A
:1003700000BF45480830006800F00C000828F8D19C
:100380000CBD10B54448006840F470004249086054
:100390003D48006840F001003B49086000203A49B0
:1003A00008310860384800683C4908403649086010
:1003B0003B48091D0860081F006820F48020091FC1
:1003C0000860002030490C310860FFF76DFF4FF0E6
:1003D000006031498039086010BD70B500200022EE
:1003E000022300240221284D08352D6805F00C0059
:1003F00020B1042806D0082834D107E0294D2A4E20
:10040000356033E0294D284E35602FE01E4D2D1DFF
:100410002D68C5F380541C4D2D1D2D6805F03F013E
:1004200054B1224DB5FBF1F5174E361D3668C6F3B3
:10043000881605FB06F209E01A4DB5FBF1F5124EE0
:10044000361D3668C6F3881605FB06F20E4D2D1DC7
:100450002D68C5F301456D1C6B00B2FBF3F5124E20
:10046000356003E00F4D104E356000BF00BF064DF4
:1004700008352D68C5F303150D4E705D0A4D2D68C6
:10048000C540094E356070BD003802400070004024
:1004900008544007003C024088ED00E0FFFFF6FEF4
:1004A000103000240024F4000000002000127A0024
:1004B0000400002033490143334A1160704770B58E
:1004C000002100230F22C47824B32F4C246804F4A5
:1004D000E064C4F5E064C4F30721C1F10404E3B2AD
:1004E0000A4144789C40E1B28478144021430C07CF
:1004F000210E264C05786155047804F01F0501246F
:10050000AC4005786D114FF0E02606EB8505C5F887
:10051000004109E0047804F01F040125A5401C4CAB
:100520000678761144F8265070BD1A4A0A400243F4
:10053000154B1B1F1A60704739B1134A121D126800
:100540000243114B1B1D1A6006E00F4A121D126870
:1005500082430D4B1B1D1A607047042808D14FF0D1
:10056000E021096941F004014FF0E022116107E048
:100570004FF0E021096921F004014FF0E022116100
:10058000704700000000FA050CED00E000E400E018
:1005900080E100E080FFFF1FFE4A1070704730B11D
:1005A000FC49096841F48071FA4A116005E0F94993
:1005B000096821F48071F74A1160704730B1F5493C
:1005C000096841F40071F34A116005E0F1490968D6
:1005D00021F40071EF4A1160704730B1ED490968AC
:1005E00041F48061EB4A116005E0EA49096821F4B1
:1005F0008061E84A11607047E648006840F4006096
:10060000E44908607047E348006840F48050E149DD
:1006100008607047DF481030006810F0004F05D0C8
:10062000DD48DC49091D0860DC4808607047D9488E
:100630001030006840F00040D64910310860704723
:100640000920D4490C31096801F48031B1F5803FAB
:1006500001D1012020E0CF490C31096811F0100FC1
:1006600001D0062018E0CB490C31096811F4807FD5
:1006700001D0022010E0C7490C31096811F0EF0FDA
:1006800001D0072008E0C3490C31096811F0020FBE
:1006900001D0082000E00920704708B5092000902B
:1006A000FFF7CEFF009002E0FFF7CAFF00909DF831
:1006B00000000128F8D09DF8000008BD70B5044680
:1006C0000A460026092502B909E0012A01D11602CD
:1006D00005E0022A01D1160201E04FF44076FFF74F
:1006E000DCFF0546092D2DD1AA481030006820F402
:1006F0004070A8491031086008460068304308601F
:100700000846006820F0F80008600846006844F0D9
:10071000020108439F49103108600846006840F410
:1007200080300860FFF7B9FF05469A48103000682E
:1007300020F002009749103108600846006820F058
:10074000F8000860284670BD30B50246002509242F
:10075000FFF7A3FF044602B909E0012A01D11502FF
:1007600005E0022A01D1150201E04FF44075092C81
:1007700020D188481030006820F44070854910313D
:10078000086008460068284308600846006840F092
:10079000040008600846006840F480300860FFF7F5
:1007A0007CFF04467B481030006820F00400794943
:1007B00010310860204630BD30B5024600250924BE
:1007C000FFF76BFF044602B909E0012A01D11502C7
:1007D00005E0022A01D1150201E04FF44075092C11
:1007E00020D16C481030006820F440706949103105
:1007F000086008460068284308600846006840F022
:10080000040008600846006840F480300860FFF784
:1008100044FF04465F481030006820F004005D4942
:1008200010310860204630BD30B50246002509244D
:10083000FFF733FF044602B909E0012A01D115028E
:1008400005E0022A01D1150201E04FF44075092CA0
:1008500020D150481030006820F440704D491031CC
:10086000086008460068284308600846006840F4AD
:10087000004008600846006840F480300860FFF7D8
:100880000CFF044643481030006820F40040414902
:1008900010310860204630BD70B5064614461D462E
:1008A0004FF00902FFF7F9FE0246092A1ED1394826
:1008B0001030006820F44070364910310860084656
:1008C000006840F4407008600846006840F001008D
:1008D000086034607560FFF7E0FE02462D48103076
:1008E000006820F001002B4910310860104670BDEF
:1008F00030B502460C460925FFF7CFFE0546092D07
:100900001DD124481030006820F440702149103176
:1009100008600846006840F40070086008460068F7
:1009200040F0010008601460FFF7B7FE0546194863
:100930001030006820F00100164910310860284688
:1009400030BD30B502460C460925FFF7A6FE054628
:10095000092D1DD10F481030006820F440700D495A
:10096000103108600846006840F48070086008464E
:10097000006840F0010008601480FFF78EFE054615
:1009800004481030006820F001000249103108606E
:10099000284630BD003C024023016745AB89EFCDBE
:1009A00030B502460C460925FFF777FE0546092DAE
:1009B00017D19B48006820F44070994908600846A8
:1009C000006808600846006840F001000860147084
:1009D000FFF763FE05469248006820F00100904949
:1009E0000860284630BD8E48001D006810F0010FD9
:1009F00005D08C488A49083908608B4808607047E0
:100A00008748001D006840F001008549091D086005
:100A1000704730B502460C460925FFF73EFE0546F5
:100A2000092D10D13CB17E48801D008890437C493F
:100A3000891D088007E07A48801D008891B208432C
:100A40007749891D088030BD30B502460C4609251E
:100A5000FFF723FE0546092D10D13CB170480A303E
:100A6000008890436E490A31088007E06C480A30DC
:100A7000008891B208436A490A31088030BDFF21DD
:100A8000674AD21D127802F07F0140EA0102644BEE
:100A9000DB1D1A70704730B502460C460925FFF77A
:100AA000FCFD0546092D10D144B15D48801D00882C
:100AB00091B208435A49891D088006E05848801DB4
:100AC000008890435649891D088030BD30B50246E4
:100AD0000C460925FFF7E1FD0546092D10D144B16B
:100AE0004F480A30008891B208434D490A310880C6
:100AF00006E04B480A300088904349490A31088093
:100B000030BD10B502460924FFF7C7FD0446092C85
:100B100002D14348401D027010BDF0B504460D4699
:100B2000FF260927FFF7B9FD0746092F0BD13C48DF
:100B3000001D007800F00F0645EA06001043204330
:100B40003749091D0870F0BD3549091D097821F0A4
:100B50001001334A121D11701146097801431170BA
:100B600070472F49091D097821F00C012C4A121DEC
:100B700011701146097801431170704700B50922C0
:100B80002748001D007840F002002549091D087023
:100B9000FFF783FD0246104600BD2148001D006896
:100BA000C0F3471070471E48801D008870471C48DE
:100BB0000A30008870471A48801D0088704718481E
:100BC0000A300088704700201549491D0978AA2974
:100BD00001D0012000E0002070471148001D00787E
:100BE00000F00C00704729B10D4A126802430C4B0B
:100BF0001A6004E00A4A12688243094B1A6070477F
:100C000001460020064A121F12680A4201D0012044
:100C100000E0002070470249091F0860704700008B
:100C2000103C02403B2A19087F6E5D4C10B504460B
:100C30009848844208D10121084600F086FB002133
:100C4000012000F082FB76E09348844208D1012124
:100C5000022000F07AFB0021022000F076FB6AE01F
:100C60008E48844208D10121042000F06EFB00214F
:100C7000042000F06AFB5EE08948844208D101212B
:100C8000082000F062FB0021082000F05EFB52E02B
:100C90008448844208D10121102000F056FB002135
:100CA000102000F052FB46E07F48844208D1012129
:100CB000202000F04AFB0021202000F046FB3AE013
:100CC0007A48844208D10121402000F03EFB0021F7
:100CD000402000F03AFB2EE07548844208D1012103
:100CE000802000F032FB0021802000F02EFB22E06B
:100CF0007048844208D10121801500F026FB0021B4
:100D0000A01500F022FB16E06B48844208D10121B7
:100D1000401500F01AFB0021601500F016FB0AE0F8
:100D20006648844207D10121001500F00EFB002126
:100D3000201500F00AFB10BDF0B50A460021002383
:100D4000002400BF3DE0012505FA01F3156805EA1E
:100D500003049C4234D105684F000326BE40B543CE
:100D6000056015794E00B540066835430560157974
:100D7000012D02D01579022D16D185684F0003266A
:100D8000BE40B543856055794E00B5408668354311
:100D90008560456801268E40B54345604568967973
:100DA0008E40B6B235434560C5684F000326BE404D
:100DB000B543C560D5794E00B540C6683543C560BA
:100DC000491C1029BFD3F0BD4FF6FF71016000210F
:100DD000017141718171C171704708B54FF4803262
:100DE0000092009A0A430092009AC261C161009A7F
:100DF000C261C2690092C269009208BD0246002029
:100E000013690B4201D0012000E000207047014629
:100E1000086980B270470246002053690B4201D036
:100E2000012000E0002070470146486980B2704709
:100E300001837047418370470AB1018300E0418319
:100E400070474161704742694A4042617047F0B55E
:100E5000002300244D07ED0E02FA05F3CE1000F139
:100E6000200555F826504E07F70E0F26BE40B54315
:100E7000CF1000F1200646F82750CE1000F12005D3
:100E800055F8265045EA0304CE1000F1200545F838
:100E90002640F0BD0000024000040240000802406D
:100EA000000C0240001002400014024000180240F2
:100EB000001C0240002002400024024000280240A2
:100EC000F948006840F00100F74908600020F64941
:100ED00008310860F4480068F4490840F2490860A5
:100EE000F348091D0860F348EF4984310860F04871
:100EF0001038091D0860EC48006820F48020EA4999
:100F000008600020E8490C310860E7498C3108602E
:100F100070470021E44A921C117011460870704716
:100F200010B501460022002300204A11012A02D1F7
:100F3000DD4C236808E0022A03D1DB4C70342368BF
:100F400002E0D94C7434236801F01F02012494405C
:100F50001C4201D0012000E0002010BD38B5002067
:100F600000900024002500BF3120FFF7D9FF05467F
:100F70000098401C00900098B0F5A04F01D0002DC3
:100F8000F2D03120FFF7CCFF08B1012400E00024AB
:100F9000204638BD01460020C34A106820F0F80002
:100FA00040EAC10010607047C349086070470021E3
:100FB000BD4A703211701170012802D004280AD184
:100FC00004E00121B84A7032117005E00521B64AEB
:100FD0007032117000E000BF00BF7047B749086071
:100FE000704770B5049C41EA82150126C6EB530692
:100FF00045EA0645054345EA0465AB4E361D3560B6
:1010000070BDAD4908667047820142EA0172A64B85
:1010100084331A607047A8498866704710B5830109
:1010200043EA016343EA02739F4C8834236010BD96
:10103000A14908677047A049C8647047024600206C
:10104000994B0833186820F0EC6042EA010318431A
:10105000954B08331860704702460020924B0833C6
:10106000186820F0784042EA010318438E4B083399
:1010700018607047014600208B4A0832106820F043
:10108000030008431060704787480830006800F08C
:101090000C00704701460020834A0832106820F097
:1010A000F000084310607047014600207E4A083275
:1010B000106820F4E050084310607047014600209B
:1010C000794A0832106820F4604040EAC10010609C
:1010D0007047F0B5002100220024022500260223DB
:1010E000714F08373F6807F00C0121B1042905D082
:1010F000082937D105E0724F076036E0714F07606D
:1011000033E0694F3F1D3F68C7F38056664F3F1D70
:101110003F6807F03F036EB16A4FB7FBF3F7DFF8A4
:1011200088C10CF1040CDCF800C0CCF3881C07FB70
:101130000CF40CE0624FB7FBF3F7DFF86CC10CF175
:10114000040CDCF800C0CCF3881C07FB0CF4564FF1
:101150003F1D3F68C7F301477F1C7D00B4FBF5F7D7
:10116000076002E0564F076000BF00BF4E4F0837D0
:101170003F6807F0F0010909534F7A5C0768D740D0
:101180004760494F08373F6807F4E051890A4E4FDE
:101190007A5C4768D7408760434F08373F6807F459
:1011A0006041490B484F7A5C4768D740C760F0BD43
:1011B000002100F44072B2F5407F0AD13A4A083269
:1011C000116821F4F811414A02401143364A0832AD
:1011D0001160354A70321268C0F30B031A43324B68
:1011E00070331A6070473549443908607047334995
:1011F0004039086070473649086070470146002052
:10120000294A8C32106820F01F004A1E1043264ADB
:101210008C321060704701460020234A8C321068DF
:1012200020F4F8504A1E40EA02201F4A8C32106017
:101230007047014600201C4A8C32106820F4401090
:1012400008431060704701460020174A8C3210682E
:1012500020F4400008431060704701460020124A05
:101260008C32106820F440300843106070471949F0
:101270000860704739B10C4A3032126802430A4B99
:1012800030331A6006E0084A303212688243064B57
:1012900030331A607047F9B1034A3432126802439E
:1012A000014B34331A601CE000380240FFFFF6EABD
:1012B000103000240030002000004742800E4742DA
:1012C0000024F40000127A0014000020FFFCFF0F3D
:1012D0005C014742E01147428F4A126882438E4BBD
:1012E0001A60704739B18C4A121D126802438A4B4A
:1012F0001B1D1A6006E0884A121D12688243864B45
:101300001B1D1A60704739B1834A0C3212680243C0
:10131000814B0C331A6006E07F4A0C32126882431C
:101320007D4B0C331A60704739B17B4A103212681A
:101330000243794B10331A6006E0774A1032126884
:101340008243754B10331A60704739B1724A243AA0
:1013500012680243704B243B1A6006E06E4A243A3E
:10136000126882436C4B243B1A60704739B16A4A59
:10137000203A12680243684B203B1A6006E0664A36
:10138000203A12688243644B203B1A60704739B19F
:10139000614A1C3A126802435F4B1C3B1A6006E02C
:1013A0005D4A1C3A126882435B4B1C3B1A607047D3
:1013B00039B1594A143A12680243574B143B1A6028
:1013C00006E0554A143A12688243534B143B1A60A4
:1013D000704739B1504A103A126802434E4B103BE5
:1013E0001A6006E04C4A103A126882434A4B103B9E
:1013F0001A60704739B1484A1C3212680243464BA2
:101400001C331A6006E0444A1C3212688243424B85
:101410001C331A60704739B13F4A203212680243C8
:101420003D4B20331A6006E03B4A2032126882436B
:10143000394B20331A60704739B1374A2432126869
:101440000243354B24331A6006E0334A24321268D3
:101450008243314B24331A60704739B12E4A2C3203
:10146000126802432C4B2C331A6006E02A4A2C32B5
:1014700012688243284B2C331A60704739B1264AD0
:10148000303212680243244B30331A6006E0224A9D
:10149000303212688243204B30331A607047012883
:1014A00008D11D493C31096841F008011A4A3C3213
:1014B000116007E018493C31096821F00801164A1B
:1014C0003C321160704739B1134A273A127802430F
:1014D000114B273B1A7006E00F4A273A12788243D5
:1014E0000D4B273B1A7070470B484030006840F0A6
:1014F0008070094940310860704701460020064A63
:10150000283A12680A4201D0012000E0002070470A
:1015100001492639087070473438024010B5044636
:10152000FE48844208D101210846FFF752FF0021FE
:101530000120FFF74EFF9DE0B4F1804F08D101215B
:101540000846FFF735FF00210120FFF731FF91E04A
:10155000F348844208D101210220FFF729FF00212E
:101560000220FFF725FF85E0EE48844208D10121E3
:101570000420FFF71DFF00210420FFF719FF79E089
:10158000E948844208D101210820FFF711FF00211A
:101590000820FFF70DFF6DE0E448844208D10121E7
:1015A0001020FFF705FF00211020FFF701FF61E089
:1015B000DF48844208D101212020FFF7F9FE0021F5
:1015C0002020FFF7F5FE55E0DA48844208D10121DA
:1015D0000220FFF7FEFE00210220FFF7FAFE49E09D
:1015E000D548844209D101210804FFF7F2FE002109
:1015F0004FF48030FFF7EDFE3CE0D048844209D143
:1016000001214804FFF7E5FE00214FF40030FFF709
:10161000E0FE2FE0CA48844209D101218804FFF787
:10162000D8FE00214FF48020FFF7D3FE22E0C5480A
:10163000844208D101214020FFF7BAFE002140205A
:10164000FFF7B6FE16E0C048844208D10121802091
:10165000FFF7AEFE00218020FFF7AAFE0AE0BB489C
:10166000844207D101218015FFF7A2FE0021A015B9
:10167000FFF79EFE10BD00220288A84B98420ED0B4
:10168000AC4B98420BD0B0F1804F08D0A44B98429D
:1016900005D0A44B984202D0A34B984204D14FF6F8
:1016A0008F731A404B881A43A04B984207D0A04B27
:1016B000984204D04FF6FF431A400B891A43028028
:1016C0004B68C3620B880385944B984202D0994BB8
:1016D000984201D18B7A03860123838270474FF0B1
:1016E000FF3141600021018001814180817270479A
:1016F0000185828270470A46002101884FF68F7368
:10170000194011430180704741627047C1627047C0
:101710000146486A70470146088D704721B102882A
:1017200042F00202028004E002884FF6FD731A4084
:101730000280704721B1028842F00402028004E076
:1017400002884FF6FB731A400280704721B102886D
:1017500042F08002028004E002884FF67F731A4054
:101760000280704702884FF6F7731A4002800288A1
:101770000A430280704702884FF6FF431A400280F6
:1017800002880A430280704721B1028842F00102B8
:10179000028004E002884FF6FE731A400280704710
:1017A00070B5002400220023058C4FF6FE763540EC
:1017B0000584028C8388048B4FF68F752C40B51EF0
:1017C0002C400D882C43751E2A408D892A434D8854
:1017D0002A43524DA84202D0564DA84213D14FF68B
:1017E000F7752A40CD892A434FF6FB752A408D882C
:1017F0002A434FF6FF652B404FF6FF552B400D8ACD
:101800002B434D8A2B43838004838D684563028478
:1018100070BD70B5002400220023058C4FF6EF76D2
:1018200035400584028C8388048B48F6FF752C4074
:101830004FF6FF452C400D884FF6FF7606EA05254A
:101840002C434FF6DF752A408D8906EA05152A4399
:101850004D8806EA05152A43304DA84202D0354D81
:10186000A8421DD14FF67F752A40CD894FF6FF76ED
:1018700006EA05152A434FF6BF752A408D8806EA09
:1018800005152A434FF6FF352B404FF2FF752B40CD
:101890000D8A06EA85052B434D8A06EA85052B430A
:1018A000838004838D688563028470BD70B50024D5
:1018B00000220023058C4FF6FF6635400584028C1C
:1018C0008388848B4FF68F752C404FF6FC752C4027
:1018D0000D882C434FF6FF552A408D894FF6FF7631
:1018E00006EA05252A434D8806EA05252A430B4DBD
:1018F000A84202D00F4DA84238D14FF2FF752A40BE
:10190000CD894FF6FF7606EA05252A434FF6FF35C7
:101910002A408D8806EA05252A4319E00000014087
:101920000004004000080040000C0040001000408F
:101930000014004000040140004001400044014008
:101940000048014000180040001C004000200040FA
:101950004EF6FF752B404DF6FF752B400D8A06EABB
:1019600005152B434D8A06EA05152B438380848396
:101970008D68C563028470BD70B500220023002409
:10198000058C4EF6FF7635400584038C8488828B67
:1019900048F6FF752A404FF6FF452A400D884FF65E
:1019A000FF7606EA05252A434DF6FF752B408D8903
:1019B00006EA05352B434D8806EA05352B43FE4DD7
:1019C000A84202D0FD4DA84208D14BF6FF752C402D
:1019D0000D8A4FF6FF7606EA85152C4384808283B4
:1019E0008D680564038470BD002101804180818081
:1019F00081608181C18101824182704770B5034657
:101A0000002000241846183001258D40ACB21D8CF2
:101A1000A5431D8409B108290AD100EB61000568BE
:101A20004FF68F76354005600568154305600FE079
:101A30000D1FC5F34E052844056848F6FF7635406E
:101A4000056005684FF6FF7606EA02263543056015
:101A500070BD4163704781637047C1637047016423
:101A600070470A460021018B4FF68F7319401143CE
:101A7000018370470A460021018B48F6FF73194025
:101A80004FF6FF7303EA02231943018370470A46A6
:101A90000021818B4FF68F7319401143818370476A
:101AA0000A460021818B48F6FF7319404FF6FF73F9
:101AB00003EA02231943818370470A460021018B00
:101AC0004FF6F77319401143018370470A4600210E
:101AD000018B4FF2FF7319404FF6FF7303EA0223A5
:101AE0001943018370470A460021818B4FF6F77333
:101AF00019401143818370470A460021818B4FF2C0
:101B0000FF7319404FF6FF7303EA022319438183E1
:101B100070470A460021018B4FF6FB7319401143B1
:101B2000018370470A460021018B4FF6FF331940AD
:101B30004FF6FF7303EA02231943018370470A46F5
:101B40000021818B4FF6FB7319401143818370474D
:101B50000A460021818B4FF6FF3319404FF6FF7381
:101B600003EA02231943818370470A460021018B4F
:101B70004FF67F7319401143018370470A460021D5
:101B8000018BC1F30E014FF6FF7303EA02231943E1
:101B9000018370470A460021818B4FF67F731940FD
:101BA0001143818370470A460021818BC1F30E01E6
:101BB0004FF6FF7303EA02231943818370470A46F5
:101BC0000021018C4FF6FD731940114301847047C9
:101BD0000A460021018C4FF6F77319401143018426
:101BE00070470A460021018C4FF6DF7319404FF60B
:101BF000FF7303EA02131943018470470A46002168
:101C0000018C4FF67F7319404FF6FF7303EA0213FE
:101C10001943018470470A460021018C4FF6FF5397
:101C200019404FF6FF7303EA0223194301847047FA
:101C30000A460021018C4FF2FF7319404FF6FF73E3
:101C400003EA02231943018470470A460021018CEC
:101C50004DF6FF7319404FF6FF7303EA0233194341
:101C60000184704730B5002301248C40A3B2048C5A
:101C70009C430484048C02FA01F5ADB22C43048425
:101C800030BD30B5002304248C40A3B2048C9C43A7
:101C90000484048C02FA01F5ADB22C43048430BDF7
:101CA000828B4FF2FF331A408283828B4FF6FF7391
:101CB00003EA01231A4382837047F0B50C461546A8
:101CC000002100220026078C4EF6FF7C07EA0C0755
:101CD0000784818B028C4FF6FF7707EA043640F6C3
:101CE000FF4739404FF6FF7707EA052739434FF69C
:101CF000FF7707EA0337394345F6FF773A4046F462
:101D000080573A4381830284F0BD828B4FF6F37390
:101D10001A408283828B0A4382837047F0B50C4657
:101D20001546002100220026078C4FF6FF6C07EABB
:101D30000C070784818B028C4FF6FF7707EA042695
:101D40004FF60C7739404FF6FF7707EA03172F431A
:101D500039434FF2FF573A4046F480773A43818344
:101D60000284F0BD028B4FF2FF331A400283028BD4
:101D70004FF6FF7303EA01231A4302837047F0B55D
:101D80000C461546002100220026078C4FF6EF7CFA
:101D900007EA0C070784018B028C4FF6FF7707EAEE
:101DA000041640F6FF4739404FF6FF7707EA03373E
:101DB00039434FF6FF7703E0000001400004014083
:101DC00007EA052739434FF65F773A4046F0100798
:101DD0003A4301830284F0BD028B4FF6F3731A403D
:101DE0000283028B0A4302837047F0B50C46154606
:101DF00000210022068C4FF6FE773E400684018BC0
:101E0000028C4FF60C7631407E1C06EA03162E43F8
:101E100031434FF6F576324044F0010632430183F8
:101E20000284F0BD70B505460C46208850B9238960
:101E3000A28861882846FFF7D8FFE1882846FFF787
:101E4000CBFF25E0208804280AD12389A288618855
:101E50002846FFF794FFE1882846FFF783FF17E045
:101E6000208808280AD12389A28861882846FFF79C
:101E700055FFE1882846FFF748FF09E02389A2883B
:101E800061882846FFF719FFE1882846FFF708FF19
:101E900070BD002101804180012181800021C1802D
:101EA000018170472DE9F04105460C4600260127C7
:101EB000608808B9022600E00026A088012801D128
:101EC000022700E001272088A0B92389A288618821
:101ED0002846FFF78AFFE1882846FFF77DFF238920
:101EE0003A4631462846FFF74AFFE1882846FFF781
:101EF00039FF13E02389A28861882846FFF73FFF56
:101F0000E1882846FFF72EFF23893A4631462846C6
:101F1000FFF76BFFE1882846FFF75EFFBDE8F08121
:101F20000146486B70470146886B70470146C86B95
:101F300070470146086C70470A884B881A438B88A3
:101F40001A43CB881A430B891A434B891A438B894E
:101F50001A43A0F84420704700210180418081800D
:101F6000C180018141818181704731B1B0F8442045
:101F700042F40042A0F8442005E0B0F84420C2F347
:101F80000E02A0F84420704721B1828842F004027A
:101F9000828004E082884FF6FB731A40828070478B
:101FA00021B1828842F00102828004E082884FF6EB
:101FB000FE731A40828070471AB183890B43838174
:101FC00002E083898B438381704781827047024698
:101FD0000020138A0B4201D0012000E0002070474E
:101FE000CA430282704730B5024600200023002415
:101FF000158A05EA0103958905EA010413B10CB1BC
:10200000012000E0002030BDCA430282704741EA4F
:102010000203A0F8483070471AB183890B438381CB
:1020200002E083898B438381704721B1828842F02B
:102030000802828004E082884FF6F7731A4082809B
:10204000704701894FF6F8721140018170470A46C6
:10205000002101894FF68F731940114301817047A8
:1020600030B504460D4629462046FFF7F0FF20898B
:1020700040F00700208130BD2DE9F04104460D46B7
:1020800016461F46602D06D13B46012231462046AA
:10209000FFF775FE05E03B46012231462046FFF77B
:1020A000A4FE29462046FFF7D2FF208940F0070012
:1020B0002081BDE8F08130B50C4600210189C9B20C
:1020C0004FF6FF7505EA0325154325432943018192
:1020D00030BD2DE9F04105460E46174698460024CE
:1020E00043463A4631462846FFF7E5FF2C894FF62E
:1020F000F870044044F007044FF68F70044044F039
:1021000070042C81BDE8F081F0B504460D461646FA
:102110001F463B46324629462046FFF7CCFF208922
:1021200040F480402081F0BD82884FF68F731A40C2
:10213000828082880A438280704702894FF6F87352
:102140001A40028102890A430281704702894FF6D0
:102150007F731A40028102890A4302817047F0B5F9
:102160000C4615461E460021002200230189028BE1
:10217000038C4FF6F877394021434FF6FC473A403D
:1021800040F201173A434FF6DD773B404FF6FF77B9
:1021900007EA06172F433B43018102830384F0BD06
:1021A00021B1828842F08002828004E082884FF66A
:1021B0007F731A4082807047A0F85010704700006B
:1021C00010B50446FA48844208D101211020FFF7D7
:1021D00000F900211020FFF7FCF857E0F548844291
:1021E00009D101214804FFF7E3F800214FF4003042
:1021F000FFF7DEF84AE0F048844209D10121880463
:10220000FFF7D6F800214FF48020FFF7D1F83DE02A
:10221000EA48844209D10121C804FFF7C9F8002126
:102220004FF40020FFF7C4F830E0E548844209D1BC
:1022300001210805FFF7BCF800214FF48010FFF7DB
:10224000B7F823E0DF48844208D101212020FFF7BE
:10225000C0F800212020FFF7BCF817E0DA488442DC
:1022600009D101218807FFF7A3F800214FF0804032
:10227000FFF79EF80AE0D548844207D101214005C6
:10228000FFF796F800216005FFF792F810BD2DE9E1
:10229000FF4705460E460024A14600BFA046B08970
:1022A00000B100BF2C8A24F44054F08804432C82EF
:1022B000AC8941F20C608443B0883189084371894C
:1022C00008430443AC81AC8A24F44074B0890443CD
:1022D000AC826846FEF7FDFEB548854202D0B9489B
:1022E000854202D1DDF80C9001E0DDF80890A88964
:1022F00010F4004F08D009EBC90000EB0910316859
:102300004900B0FBF1F707E009EBC90000EB091049
:1023100031688900B0FBF1F76420B7FBF0F00401ED
:102320002009642101FB1078A88910F4004F08D01F
:10233000322000EBC800B0FBF1F000F007000443CE
:1023400008E0322000EB08106421B0FBF1F000F04F
:102350000F0004432C81BDE8FF874FF41651016044
:1023600000218180C18001810C2141810021818176
:10237000704710B502460020108A20F470600B8868
:102380004C8823438C882343CC88234318431082F2
:1023900010BD0021018041808180C180704721B142
:1023A000828942F40052828104E082894DF6FF73F3
:1023B0001A4082817047028B02F47F420283028BB3
:1023C0000A430283704721B1828942F4004282812C
:1023D00003E08289C2F30E028281704721B1828AB2
:1023E00042F40062828204E0828A4FF2FF731A4054
:1023F00082827047C1F30802828070470146888854
:10240000C0F308007047028A4FF6F0731A40028248
:10241000028A0A430282704721B1828942F0020295
:10242000828104E082894FF6FD731A4082817047F1
:1024300082894FF2FF731A40828182890A43828126
:102440007047028A4FF6DF731A400282028A0A43FB
:102450000282704721B1028A42F48042028204E083
:10246000028A4BF6FF731A4002827047818941F05D
:1024700001018181704721B1828A42F00802828283
:1024800004E0828A4FF6F7731A4082827047028B0B
:10249000D2B20283028B42EA01220283704721B149
:1024A000828A42F02002828204E0828A4FF6DF7341
:1024B0001A408282704721B1828A42F010028282E1
:1024C00004E0828A4FF6EF731A4082827047828A54
:1024D0004FF6FB731A408282828A0A4382827047D7
:1024E00021B1828A42F00202828204E0828A4FF69F
:1024F000FD731A40828270471AB1838A0B4383822C
:1025000002E0838A8B4383827047F0B50346002440
:10251000002600250020A1F510676A3F00D100BF0A
:102520001846C1F3421401F01F06012707FA06F509
:10253000012C01D10C3004E0022C01D1103000E05C
:1025400014301AB107682F43076002E00768AF43F1
:102550000760F0BD02460020B1F5007F00D100BF4A
:1025600013880B4201D0012000E00020704701F4E5
:102570000072B2F5007F00D100BFCA4302807047ED
:1025800070B502460024002300250020A1F5106646
:102590006A3E00D100BFC1F3421501F01F030126BE
:1025A00006FA03F3012D13D19689334017E000009A
:1025B000001001400044004000480040004C004032
:1025C000005000400014014000780040007C0040B2
:1025D000022D02D1168A334001E0968A33400C1254
:1025E000012606FA04F41688344013B10CB1012018
:1025F00000E0002070BD10B500220023A1F510649A
:102600006A3C00D100BF0A1201249440A3B2DC430B
:10261000048010BD0EB500BF0AE002F036F802A833
:10262000002114230A46CDE9001008460EF0E7FB0E
:10263000F3E770B504460D4604F0A6FD9FED9F0A32
:1026400005F002FC70BD70B504460D4603F03AFD7E
:1026500070BD30B58BB00446002500BF06F0D8F839
:102660000AA80CF055F80AAA0121084608F0CFF88C
:102670000AA80021AFF231020223CDE90032CDE9F0
:1026800002100A2305228EA18F480EF0F6FD0AA83B
:102690000021AFF261020223CDE90032CDE9021040
:1026A00005231A4689A18B480EF0E7FD00BF00BF45
:1026B00000BF06F0E9F9054600BF00BF8648007874
:1026C000401C8549087000BF00BF284606F0E0F9AD
:1026D00000BF00BF00BF0AAA80A184480AF077F9B2
:1026E0000AA8032100220592CDE906210890104690
:1026F0004FF4007133227E4BCDE90132CDE9031056
:1027000007200023AFF2F3027AA100907E480CF07C
:10271000DBFB0AA97D480DF047FF0AA96A480EF0C5
:102720008AFF0AA96B480EF086FF00BF00BF00BFFA
:1027300006F0AAF9054600BF00BF67480078401EB2
:102740006549087008460078A0B9714800880028DB
:1027500009DD00BF00BF284606F09AF900BF00BFA0
:1027600008F04DFC0DE000BF00BF284606F090F9D0
:1027700000BF06E000BF00BF284606F089F900BF91
:1027800000BF00BF0BB030BD8AB00024A82005F008
:10279000C5FD4FF4E13005F054FE4FF4E13003F095
:1027A0000AFC4FF4165004F018FC05F0A3FC00F0EE
:1027B00054FA00F0D1FA4FF47A7000F0A9FA01F05F
:1027C000D7FF02F099FD00F023FD04F076FA40F205
:1027D0001B405049888040F2DC5008804880C88007
:1027E00000204D49087000F068FA4FF4A0710420F1
:1027F00003F05AFC09A807F0E1FD00BF00BF00BFCD
:1028000006F042F9044600BF00BF33480078401C80
:102810003149087000BF00BF204606F039F900BFFB
:1028200000BF00BF09A8032100220592CDE90621BF
:10283000089010464FF400713322384BCDE9013235
:10284000CDE9031003200023AFF2F91234A1009068
:102850002E480CF039FB00BF00BF00BF06F014F992
:10286000044600BF00BF1C480078401E1A4908708B
:1028700008460078A0B926480088002809DD00BF76
:1028800000BF204606F004F900BF00BF08F0B7FB08
:102890000DE000BF00BF204606F0FAF800BF06E0DA
:1028A00000BF00BF204606F0F3F800BF00BF00BF26
:1028B00009A808F04CF800BFFEE70000CDCC4C3D65
:1028C000746D723100000000001D0020746D7232C2
:1028D00000000000341D00209C020020446174654B
:1028E000436865636B5F4D5554455800D41C002008
:1028F000D4140020446174617472616E73666572F1
:10290000207461736B00000010140020000300208D
:1029100060020020E01E002070000020C4030020A0
:102920007374617274207461736B0000704700BF30
:10293000FEE700BFFEE700BFFEE700BFFEE770470F
:102940007047704710B502F00EFE10BD10B502F0D2
:1029500011FF10BD70477047704710B507F0C4FDF8
:102960006848008A10F0010F7ED067480078401C4C
:102970006549087065480078401C644908706448DF
:102980000078401C6249087062480078401C614928
:10299000087061480078401C5F4908705F48007803
:1029A000401C5E4908705E480078401C5C49087015
:1029B0005C480078401C5B4908705B480088401CFC
:1029C0005949088059480088401C5849088058488F
:1029D0000088401C564908800120564908704A4822
:1029E0000078012804DB00204749087003F021F932
:1029F00046480078022811DB0020444908704E4800
:102A0000D0ED001AB0EE611AD0ED021AF0EE610AB4
:102A1000D0ED011AB0EE610A03F04DFC3C4800789D
:102A2000042802DB00203A4908703A4800780F2851
:102A300007DB0020374908700120404908704049F1
:102A40000870354800780A2807DB002032490870F2
:102A500001203C4908703C4908703148007828281A
:102A600010D100202E4900E045E00870374800787A
:102A700028B90020364908802D49088002E06420EA
:102A8000334908802748007832280DDB002025498B
:102A9000087001202F4908702F48008800EE100AA6
:102AA000B8EE400A05F034FB21480088284909881F
:102AB000884215D100201E4908802848007838B186
:102AC00000202649087001212548FEF7B1F912E0DF
:102AD00001202249087001212148FEF7ABF90AE0E4
:102AE000134800881A490988884204DD184800887C
:102AF000401E0F4908804FF6FE700249088207F019
:102B000004FD10BD0010004024000020250000201E
:102B10002600002027000020280000202900002097
:102B20002A0000202B0000202C0000202E00002076
:102B30003200002058000020201F00205C000020F0
:102B400062000020590000205A0000207000002080
:102B5000300000205B0000209C0100203400002099
:102B60000004024010B50446082C74D2DFE804F0DB
:102B7000730413223344556401216048FEF75AF967
:102B8000642005F024FC01215C48FEF751F9642023
:102B900005F01DFC5FE001215848FEF74BF9C82005
:102BA00005F015FC01215548FEF742F9C82005F053
:102BB0000EFC00BF01215148FEF73CF94FF496701E
:102BC00005F005FC01214D48FEF732F94FF49670EF
:102BD00005F0FDFB00BF01214848FEF72BF94FF43B
:102BE000C87005F0F4FB01214448FEF721F94FF4C9
:102BF000C87005F0ECFB00BF01214048FEF71AF950
:102C00004FF4FA7005F0E3FB01213C48FEF710F9A0
:102C10004FF4FA7005F0DBFB00BF01213748FEF7E7
:102C200009F9502005F0D3FB01213448FEF700F9E3
:102C3000502005F0CCFB00BF01213048FEF7FAF828
:102C4000322005F0C4FB01212C48FEF7F1F83220B8
:102C500005F0BDFB00BF00BF10BD1CB50121022067
:102C6000FEF708FB012000908DF8040000208DF88D
:102C7000060002208DF8050000208DF80700694647
:102C80001E48FEF759F801211C48FEF7D1F8002430
:102C900004E00620FFF766FF601CC4B20A2CF8DBD4
:102CA000012016491A3108804FF47A7005F08FFB25
:102CB0004FF47A7005F08BFB1CBD10B54FF47A70A1
:102CC00005F085FB4FF47A7005F081FB002404E0E9
:102CD0000120FFF747FF601CC4B20A2CF8DB9FED10
:102CE000080A084880ED000A9FED070A80ED010AF6
:102CF0009FED060A80ED020A10BD000000040240AC
:102D0000E17A14BF441F0020D7A390BF0000000049
:102D10003EB5044601211020FEF7F5FA5648FEF7AD
:102D2000FDFB01945320ADF800000020ADF8080031
:102D3000ADF8020069465048FEF79DFC01214E485F
:102D4000FFF74EF9012211464B48FFF735F90121F3
:102D50004948FEF719FD3EBD08B54FF48060FDF708
:102D6000A9FB1C208DF8000000208DF801008DF8D3
:102D7000020001208DF803006846FDF7A0FB1D202E
:102D80008DF8000000208DF8010001208DF8020070
:102D90008DF803006846FDF792FB1E208DF80000B9
:102DA00000208DF8010001208DF802008DF803004D
:102DB0006846FDF784FB19208DF8000000208DF88F
:102DC00001008DF8020001208DF803006846FDF730
:102DD00076FB1A208DF8000000208DF801008DF898
:102DE000020001208DF803006846FDF768FB3620DD
:102DF0008DF8000000208DF801008DF80200012000
:102E00008DF803006846FDF75AFB25208DF8000079
:102E100001208DF8010002208DF8020001208DF8BC
:102E200003006846FDF74BFB26208DF800000120CB
:102E30008DF8010000208DF8020001208DF80300BC
:102E40006846FDF73CFB31208DF8000005208DF829
:102E5000010000208DF8020001208DF80300684673
:102E6000FDF72DFB3B208DF8000006208DF80100BA
:102E70006846FDF724FB08BD0010004010B52DED9D
:102E8000048BB0EE408AF0EE608AB0EE419AFD48C5
:102E9000B0F9000040F2DD51081A142190FBF1F066
:102EA00000EE100AB8EEC00A30EE080AB0EE408A12
:102EB000F54890ED000A30EE080A80ED000A90ED2A
:102EC000000ADFEDF20AB4EEE00AF1EE10FA03DDDB
:102ED0009FEDEE0A80ED000AEB4890ED000ADFED71
:102EE000EC0AB4EEE00AF1EE10FA03D29FEDE80A24
:102EF00080ED000AE74890ED000A20EE080A80ED18
:102F0000010A90ED040AE448D0ED000A20EE200A00
:102F1000E04880ED050A90ED020ADB48D0ED000A9A
:102F200020EE200ADB4880ED030AD648B0F9020003
:102F3000A0F2DD50142190FBF1F000EE100AB8EE83
:102F4000C00A30EE280AF0EE408AD44890ED000A1C
:102F500030EE280A80ED000A90ED000ADFEDCB0A82
:102F6000B4EEE00AF1EE10FA03DD9FEDC80A80ED41
:102F7000000ACA4890ED000ADFEDC50AB4EEE00A87
:102F8000F1EE10FA03D29FEDC20A80ED000AC448A8
:102F900090ED000A20EE280A80ED010A90ED040A67
:102FA000BD48D0ED010A20EE200ABD4880ED050A9B
:102FB00090ED020AB948D0ED000A20EE200AB84888
:102FC00080ED030AAF48B0F90600B0F5B96F05DB34
:102FD000AC48B0F90600B0F5BE6F13DDAE48D0EDD9
:102FE000020AA848B0F90600A0F2DC5000EB80000D
:102FF000400000EE100AB8EEC00A30EEC00AA64843
:1030000080ED020AA44890ED020ADFEDA60A60EE08
:10301000200AA54890ED000A9FEDA41A00EE810A4F
:1030200080ED000AA24890ED000A9F48D0ED000A0A
:1030300020EE200A9E4880ED010A90ED040A964891
:10304000D0ED020A20EE200A994880ED050A8D484D
:10305000B0F9040040F2145188420EDA9FED950A4F
:103060008E4880ED000A9FED930A874880ED000AA4
:103070009FED900A8C4880ED000A864890ED010A89
:10308000D0ED030A30EE200AD0ED050A30EE200A1A
:1030900080ED070A824890ED010AD0ED030A30EE78
:1030A000200AD0ED050A30EE200A80ED070A80489C
:1030B00090ED010AD0ED030A30EE200AD0ED050AAA
:1030C00030EE200A80ED070A6E48B0F9040040F2A5
:1030D0001A4188427EDD7848007800287ED0694811
:1030E000B0F90400A0F57A7000EE100AB8EEC00A3C
:1030F0006848D0ED070A30EE600A6948D0ED070A4B
:1031000030EE600A6A48D0ED070A30EE200ABDEEC4
:10311000C00A10EE100A00B2684908805948B0F998
:103120000400A0F57A7000EE100AB8EEC00A594803
:10313000D0ED070A30EE200A5948D0ED070A30EEEC
:10314000600A5B48D0ED070A30EE600ABDEEC00AA7
:1031500010EE100A00B25A4908804A48B0F904003B
:10316000A0F57A7000EE100AB8EEC00A4948D0ED1A
:10317000070A30EE200A4A48D0ED070A30EE200A4E
:103180004B48D0ED070A30EE200ABDEEC00A10EE23
:10319000100A00B24B4908803A48B0F90400A0F583
:1031A0007A7000EE100AB8EEC00A3A48D0ED070A6D
:1031B00030EE600A3A48D0ED070A30EE200A3C486B
:1031C000D0ED070A30EE600ABDEEC00A10EE100A1C
:1031D00000B200E002E03C49088008E000203749E6
:1031E00008803749088037490880374908803648C1
:1031F000B0F900303348B0F900203148B0F9001080
:103200002E48B0F9000001F041FBBDEC048B10BD6D
:10321000B2EE010A1F4880ED000A9FED2C0A80EDF6
:10322000020A9FED2B0A80ED040AB2EE010A1C4847
:1032300080ED000A9FED250A80ED020A9FED240A29
:1032400080ED040AB2EE010A194880ED000A9FEDF4
:10325000190A80ED020A9FED1F0A80ED040A9FED16
:10326000150A1D4880ED000A9FED120A80ED020A42
:103270009FED100A80ED040A9FED0E0A174880EDBD
:10328000000A2DE0E01E00203C0000200000FA446F
:103290000000FAC4681D0020081F00204000002024
:1032A000881D00208DC1793D440000206F12033B32
:1032B000A81D002000000000700000204800002031
:1032C0004A0000204C0000204E0000206F12833A7C
:1032D0003D0A573E9A99993EC81D0020E81D0020DE
:1032E0001FED0C0A80ED020A1FED0E0A80ED040AA4
:1032F0001FED100A144880ED000A1FED120A80ED40
:10330000020A1FED140A80ED040A1FED160A0F4889
:1033100080ED000A1FED190A80ED020A1FED1B0A5D
:1033200080ED040A1FED1D0A094880ED000A1FED1B
:103330001F0A80ED020A1FED210A80ED040A002019
:103340000449087070470000081E0020281E002055
:10335000481E0020700000202DE9F04105460E4671
:1033600000270024AA20FE4908704870EF208870CA
:103370000220C87008460571467100BF05E0F84894
:10338000005D3844C7B2601CC4B2062CF7DBF448B9
:103390008771002405E0F249085D05F096F8601C8D
:1033A000C4B2072CF7DBBDE8F0812DE9F0410446FB
:1033B0000D460026002700BF04E0E05D3044C6B2A1
:1033C000781CC7B2681EB842F7DC601910F8010C0F
:1033D000B04201D0BDE8F0812078AA2802D16078FF
:1033E000AF2800D0F6E7A078032845D12079000265
:1033F00000B261790843DB498880A079000200B2FD
:10340000E1790843D749C880207A000200B2617A86
:103410000843D4490880A07A000200B2E17A084348
:10342000D0494880207B000200B2617B0843CD492F
:103430000881A07B000200B2E17B0843C9494881B2
:10344000207C000200B2617C0843C6498881A07CD0
:10345000000200B2E17C0843C249C881207D00021D
:1034600000B2617D0843BF490882607D000200B25E
:10347000A17D0843BB494882A078012819D1207951
:10348000012802D10020B84908700120B74908700E
:103490002079022802D10020B54908700120B349E3
:1034A00008702079032804D10020AF490870B04982
:1034B0000870A07802280DD12079012805D1AD49E6
:1034C0000870AD490870AD4908702079A12801D174
:1034D000FFF79EFEA07810287ED12079000200B26E
:1034E0006179084300EE100AB8EEC00ADFEDA40AC5
:1034F00080EE201AA34880ED001AA079000200B2E5
:10350000E179084300EE100AB8EEC00ADFED9E0A2A
:1035100080EE201A9B4880ED021A207A000200B249
:10352000617A084300EE100AB8EEC00ADFED940A93
:1035300080EE201A934880ED041AA07A000200B2AF
:10354000E17A084300EE100AB8EEC00ADFED8C0AFB
:1035500080EE201A8D4880ED001A207B000200B218
:10356000617B084300EE100AB8EEC00ADFED860A60
:1035700080EE201A854880ED021AA07B000200B27E
:10358000E17B084300EE100AB8EEC00ADFED7C0ACA
:1035900080EE201A7D4880ED041A207C000200B2E3
:1035A000617C084300EE100AB8EEC00ADFED740A31
:1035B00080EE201A764880ED001AA07C000200B24E
:1035C000E17C084300EE100AB8EEC00ADFED6C0A99
:1035D00080EE201A6E4800E018E080ED021A207D8F
:1035E000000200B2617D084300EE100AB8EEC00A86
:1035F000DFED630A80EE201A654880ED041AA0789A
:103600003146FFF7A9FE01205A490870A078112819
:103610007ED12079000200B26179084300EE100AE1
:10362000B8EEC00ADFED560A80EE201A594880ED48
:10363000001AA079000200B2E179084300EE100AF6
:10364000B8EEC00ADFED4E0A80EE201A514880ED38
:10365000021A207A000200B2617A084300EE100AD2
:10366000B8EEC00ADFED460A80EE201A494880ED28
:10367000041AA07A000200B2E17A084300EE100AB0
:10368000B8EEC00ADFED3E0A80EE201A424880ED17
:10369000001A207B000200B2617B084300EE100A92
:1036A000B8EEC00ADFED360A80EE201A3A4880ED07
:1036B000021AA07B000200B2E17B084300EE100A70
:1036C000B8EEC00ADFED2E0A80EE201A324880EDF7
:1036D000041A207C000200B2617C084300EE100A4C
:1036E000B8EEC00ADFED260A80EE201A2B4880EDE6
:1036F000001AA07C000200B2E17C084300EE100A30
:10370000B8EEC00ADFED1E0A80EE201A234800E062
:1037100018E080ED021A207D000200B2617D0843AE
:1037200000EE100AB8EEC00ADFED150A80EE201A8E
:103730001A4880ED041AA0783146FFF70DFE0120EB
:103740000D490870A07812287DD12079000200B2BE
:103750006179084300EE100AB8EEC00A20E00000CC
:10376000681E0020E01E0020990000205E0000205E
:10377000980000205F000020600000206100002011
:103780000000C842681D002000007A44881D002007
:10379000A81D0020C81D0020E81D0020081E0020D4
:1037A0005FED090A80EE201AFE4880ED001AA0792C
:1037B000000200B2E179084300EE100AB8EEC00A38
:1037C0005FED110A80EE201AF64880ED021A207A89
:1037D000000200B2617A084300EE100AB8EEC00A97
:1037E0005FED190A80EE201AEE4880ED041A207968
:1037F000000200B26179084300EE100AB8EEC00A78
:103800005FED210A80EE201AE74880ED001AA079CA
:10381000000200B2E179084300EE100AB8EEC00AD7
:103820005FED290A80EE201ADF4880ED021A207A27
:10383000000200B2617A084300EE100AB8EEC00A36
:103840005FED310A00E00FE080EE201AD64880EDEF
:10385000041AA0783146FFF77FFD0120D349087094
:1038600001F0B1F803F009FBA078132803D1A07888
:103870003146FFF771FDA078142803D1A0783146B6
:10388000FFF76AFDA078152803D1A0783146FFF72D
:1038900063FD00BF9EE570B5002400260025AA2226
:1038A0002146641CC24842542146641C42540622EC
:1038B0002146641C425400222146641C4254BD48E7
:1038C00042782146641CBA484254BA4802782146DC
:1038D000641CB7484254B84842782146641CB44836
:1038E0004254B54802782046611CCCB2B0490A5413
:1038F000B24842782046611CCCB2AD490A54AF4868
:1039000002782046611CCCB2A9490A54AC484278DE
:103910002046611CCCB2A6490A54A9480278204628
:10392000611CCCB2A2490A54A64842782046611CC8
:10393000CCB29F490A54A34802782046611CCCB2FD
:103940009B490A54A04842782046611CCCB2984951
:103950000A549D4802782046611CCCB294490A540E
:103960009A4842782046611CCCB291490A54974843
:1039700002782046611CCCB28D490A5494484278A2
:103980002046611CCCB28A490A54914802782046EC
:10399000611CCCB286490A54201FC87000BF05E0E4
:1039A0008348405D3044C6B2681CC5B2A542F7DB0F
:1039B0002046611CCCB27E490E54002505E07C49AE
:1039C000485D04F082FD681CC5B2A542F7DB70BDFE
:1039D00070B5002400260025AA222146641C7448E4
:1039E00042542146641C425416222146641C42540F
:1039F00000222146641C4254764842782146641CC9
:103A00006B484254734802782146641C684842540B
:103A1000704842792146641C654842546D480279D9
:103A20002046611CCCB262490A546A48427A204658
:103A3000611CCCB25E490A546648027A2046611C79
:103A4000CCB25B490A54644842782046611CCCB22F
:103A500057490A54604802782046611CCCB2544948
:103A60000A545D4842792046611CCCB250490A5440
:103A7000594802792046611CCCB24D490A54564837
:103A8000427A2046611CCCB249490A545248027A13
:103A90002046611CCCB246490A54201FC87000BFA2
:103AA00005E04348405D3044C6B2681CC5B2A5423B
:103AB000F7DB2046611CCCB23D490E54002505E0E1
:103AC0003B49485D04F001FD681CC5B2A542F7DB27
:103AD00070BD70B5002400250026AA222146641C72
:103AE000334842542146641C425403222146641C3C
:103AF000425400222146641C4254384842792146EF
:103B0000641C2B484254354802792146641C2848DD
:103B100042543248C2792146641C254842542F48F9
:103B200082792046611CCCB221490A542B48427844
:103B30002046611CCCB21E490A542848027820460F
:103B4000611CCCB21A490A542448C2782046611C30
:103B5000CCB217490A54214882782046611CCCB265
:103B600013490A541D48427A2046611CCCB21049C0
:103B70000A541A48027A2046611CCCB20C490A54F5
:103B80001648C27A2046611CCCB209490A5413482F
:103B9000827A2046611CCCB205490A540F48427B08
:103BA00020461DE0281E0020481E00206100002045
:103BB000681E0020480000204A0000204C00002021
:103BC0004E00002050000020520000205400002031
:103BD00056000020381F00202C1F0020E01E00206F
:103BE000611CCCB2FE490A54FE48027B2046611C8F
:103BF000CCB2FB490A54FB48C27B2046611CCCB2C4
:103C0000F7490A54F748827B2046611CCCB2F4493C
:103C10000A54F448427C2046611CCCB2F0490A5454
:103C2000F048027C2046611CCCB2ED490A54ED48B4
:103C3000C27C2046611CCCB2E9490A54E948827C26
:103C40002046611CCCB2E6490A54201FC87000BF50
:103C500005E0E348405D3044C6B2681CC5B2A542E9
:103C6000F7DB2046611CCCB2DD490E54002505E08F
:103C7000DB49485D04F029FC681CC5B2A542F7DBAE
:103C800070BDF8B5002400260025AA222146641C38
:103C9000D34842542146641C425412222146641CDB
:103CA000425400222146641C4254CF4890ED000A41
:103CB000DFEDCE0A20EE200ABDEEC00A10EE100A9B
:103CC00000B200909DF801202146641CC448425473
:103CD0009DF800202146641C4254C34890ED020A1E
:103CE000DFEDC20A20EE200ABDEEC00A10EE100A77
:103CF00000B200909DF801202146641CB84842544F
:103D00009DF800202146601CC4B2B5484254B64814
:103D100090ED040ADFEDB50A20EE200ABDEEC00AE0
:103D200010EE100A00B200909DF801202046611CA0
:103D3000CCB2AB490A549DF800202046611CCCB29D
:103D4000A7490A54AA4890ED000ADFEDA80A20EE20
:103D5000200ABDEEC00A10EE100A00B200909DF8D5
:103D600001202046611CCCB29D490A549DF80020D8
:103D70002046611CCCB29A490A549D4890ED020A33
:103D8000DFED9A0A20EE200ABDEEC00A10EE100AFE
:103D900000B200909DF801202046611CCCB29049F1
:103DA0000A549DF800202046611CCCB28C490A546C
:103DB0008F4890ED040ADFED8D0A20EE200ABDEE5B
:103DC000C00A10EE100A00B200909DF801202046B3
:103DD000611CCCB282490A549DF800202046611C27
:103DE000CCB27F490A54201FC87000BF05E07C4850
:103DF000405D3044C6B2681CC5B2A542F7DB204620
:103E0000611CCCB276490E54002505E07449485D2A
:103E100004F05BFB681CC5B2A542F7DBF8BDF8B542
:103E2000002400260025AA222146641C6C48425426
:103E30002146641C425411222146641C4254002233
:103E40002146641C42546B4890ED000ADFED670A7E
:103E500020EE200ABDEEC00A10EE100A00B200905B
:103E60009DF801202146641C5D4842549DF80020C5
:103E70002146641C42545F4890ED020ADFED5B0A64
:103E800020EE200ABDEEC00A10EE100A00B200902B
:103E90009DF801202146641C514842549DF80020A1
:103EA0002046611CCCB24E490A54524890ED040A97
:103EB000DFED4E0A20EE200ABDEEC00A10EE100A19
:103EC00000B200909DF801202046611CCCB244490C
:103ED0000A549DF800202046611CCCB240490A5487
:103EE000454890ED000ADFED410A20EE200ABDEEC4
:103EF000C00A10EE100A00B200909DF80120204682
:103F0000611CCCB236490A549DF800202046611C41
:103F1000CCB233490A54384890ED020ADFED330A37
:103F200020EE200ABDEEC00A10EE100A00B200908A
:103F30009DF801202046611CCCB229490A549DF805
:103F400000202046611CCCB225490A542A4890ED35
:103F5000040ADFED260A20EE200ABDEEC00A10EEAC
:103F6000100A00B200909DF801202046611CCCB2DE
:103F70001B490A549DF800202046611CCCB2184908
:103F80000A541E4890ED000ADFED180A20EE200AC0
:103F9000BDEEC00A10EE100A00B200909DF801209C
:103FA0002046611CCCB20E490A549DF800202046E0
:103FB000611CCCB20A490A54104890ED020ADFEDA8
:103FC0000B0A20EE200ABDEEC00A10EE100A00B265
:103FD00000909DF801202046611CCCB200490FE002
:103FE000681E0020E01E0020281E00200000C8429D
:103FF000481E0020C81D0020E81D0020081E0020CB
:104000000A549DF800202046611CCCB2FE490A5497
:10401000FE4890ED040A5FED0B0A20EE200ABDEE8B
:10402000C00A10EE100A00B200909DF80120204650
:10403000611CCCB2F4490A549DF800202046611C52
:10404000CCB2F1490A54201FC87000BF05E0EE4809
:10405000405D3044C6B2681CC5B2A542F7DB2046BD
:10406000611CCCB2E8490E54002505E0E649485DE4
:1040700004F02BFA681CC5B2A542F7DBF8BDF8B511
:10408000002400260025AA222146641CDE48425452
:104090002146641C425410222146641C42540022D2
:1040A0002146641C4254DA4890ED000A5FED310A63
:1040B00020EE200ABDEEC00A10EE100A00B20090F9
:1040C0009DF801202146641CCF4842549DF80020F1
:1040D0002146641C4254CE4890ED020ADFEDCD0A21
:1040E00020EE200ABDEEC00A10EE100A00B20090C9
:1040F0009DF801202146641CC34842549DF80020CD
:104100002046611CCCB2C0490A54C14890ED040A53
:104110005FED4A0A20EE200ABDEEC00A10EE100A3A
:1041200000B200909DF801202046611CCCB2B64937
:104130000A549DF800202046611CCCB2B2490A54B2
:10414000B54890ED000A5FED570A20EE200ABDEE5B
:10415000C00A10EE100A00B200909DF8012020461F
:10416000611CCCB2A8490A549DF800202046611C6D
:10417000CCB2A5490A54A84890ED020ADFEDA50A81
:1041800020EE200ABDEEC00A10EE100A00B2009028
:104190009DF801202046611CCCB29B490A549DF831
:1041A00000202046611CCCB297490A549A4890EDF1
:1041B000040A5FED720A20EE200ABDEEC00A10EE7E
:1041C000100A00B200909DF801202046611CCCB27C
:1041D0008D490A549DF800202046611CCCB28A49C2
:1041E0000A548E4890ED000A5FED800A20EE200A06
:1041F000BDEEC00A10EE100A00B200909DF801203A
:104200002046611CCCB280490A549DF8002020460B
:10421000611CCCB27C490A54804890ED020ADFED63
:104220007D0A20EE200ABDEEC00A10EE100A00B290
:1042300000909DF801202046611CCCB272490A54BE
:104240009DF800202046611CCCB26F490A54734887
:1042500090ED040A5FED9B0A20EE200ABDEEC00A35
:1042600010EE100A00B200909DF801202046611C5B
:10427000CCB265490A549DF800202046611CCCB29E
:1042800061490A54201FC87000BF05E05E48405DC8
:104290003044C6B2681CC5B2A542F7DB2046611C9B
:1042A000CCB259490E54002505E05749485D04F049
:1042B0000CF9681CC5B2A542F7DBF8BD7CB500243B
:1042C000002600BFAA222146641C4F4842542146C2
:1042D000641C425407222146641C42540022214699
:1042E000641C42544E48008800EB8000400000905F
:1042F0009DF803202146641C434842549DF8022047
:104300002146641C42549DF801202146641C4254FD
:104310009DF800202146601CC4B23B4842544148ED
:10432000008800EB80004FF6FF7101EA4000019029
:104330009DF805202046611CCCB233490A549DF8F3
:1043400004202046611CCCB22F490A54201FC8709B
:10435000002505E02C48405D3044C6B2681CC5B25B
:10436000A542F7DB2046611CCCB227490E5400253C
:1043700005E02549485D04F0A8F8681CC5B2A542CF
:10438000F7DB7CBDF8B5002400260025AA222146D3
:10439000641C1D4842542146641C4254022221469A
:1043A000641C425400222146641C42541E4890ED75
:1043B000000ABDEEC00A10EE100A00B200909DF88F
:1043C00001202146641C104842549DF800202146DB
:1043D000641C4254144890ED010ABDEEC00A10EE70
:1043E000100A00B200909DF801202146641C064886
:1043F00042549DF800202046611CCCB202490A5468
:10440000094890ED020A11E0681E0020081E0020F5
:10441000681D002000007A44881D0020A81D00208F
:10442000820100209C010020141F0020BDEEC00A64
:1044300010EE100A00B200909DF801202046611C89
:10444000CCB2BA490A549DF800202046611CCCB277
:10445000B6490A54B64890ED000ABDEEC00A10EE07
:10446000100A00B200909DF801202046611CCCB2D9
:10447000AE490A549DF800202046611CCCB2AB49DD
:104480000A54AB4890ED010ABDEEC00A10EE100AC6
:1044900000B200909DF801202046611CCCB2A349D7
:1044A0000A549DF800202046611CCCB29F490A5452
:1044B0009F4890ED020ABDEEC00A10EE100A00B24D
:1044C00000909DF801202046611CCCB297490A5407
:1044D0009DF800202046611CCCB294490A54201F4C
:1044E000C87000BF05E09148405D3044C6B2681C0A
:1044F000C5B2A542F7DB2046611CCCB28B490E54F5
:10450000002505E08949485D03F0DFFF681CC5B25E
:10451000A542F7DBF8BD7CB5002400260025AA22C1
:104520002146641C814842542146641C42540122A5
:104530002146641C425400222146641C42547D489A
:1045400090ED010ADFED7C0A20EE200ABDEEC00AE4
:1045500010EE100A00B201909DF805202146641C5F
:10456000724842549DF804202146641C425471480C
:1045700090ED020ADFED700A20EE200ABDEEC00ABF
:1045800010EE100A00B201909DF805202146641C2F
:10459000664842549DF804202046611CCCB2634911
:1045A0000A54644890ED000ADFED630A20EE200A09
:1045B000BDEEC00A10EE100A00B201909DF8052071
:1045C0002046611CCCB259490A549DF8042020466B
:1045D000611CCCB255490A545848008800EB800051
:1045E000400000909DF803202046611CCCB24F494A
:1045F0000A549DF802202046611CCCB24B490A5453
:104600009DF801202046611CCCB248490A549DF80F
:1046100000202046611CCCB244490A544848007826
:1046200030B102222046611CCCB240490A5408E055
:104630004348007828B901222046611CCCB23B498E
:104640000A54404802782146601CC4B2374842549C
:10465000201F3649C870002505E03448405D3044CD
:10466000C6B2681CC5B2A542F7DB2046611CCCB2BD
:104670002E490E54002505E02C49485D03F025FF26
:10468000681CC5B2A542F7DB7CBD10B52E4800788A
:1046900020B100202C490870FFF73DFF2B4800781F
:1046A00010B10020294908702948007820B1002065
:1046B00027490870FFF766FE2548007820B10020E2
:1046C00024490870FFF7FAFD2348007820B1002044
:1046D00021490870FFF7D3FC2048007820B1002062
:1046E0001E490870FFF79BFB1D48007820B1002091
:1046F0001B490870FFF7C5FA1A48007820B100205E
:1047000018490870FFF7E5F91748007820B1002034
:1047100015490870FFF75CF91448007820B10020B3
:1047200012490870FFF7B7F810BD0000681E00209E
:10473000081F0020201F00200000C8428201002026
:104740007200002070000020590000205D00002051
:104750005A0000205B0000205F0000206000002065
:10476000610000205C0000205E000020620000204C
:1047700010B58AB0002401210820FCF7C4FD0121F6
:104780000846FCF777FD0F20009002208DF804000A
:1047900003208DF8050000208DF8060001208DF81B
:1047A000070069465A48FCF7C7FA02220021584818
:1047B000FCF74DFB022201215548FCF748FB022281
:1047C00011465348FCF743FB022203215048FCF7F3
:1047D0003EFB5048006840084F49B0FBF1F0401ED6
:1047E00084B24CF613500890ADF81C400020ADF890
:1047F0002400ADF81E0007A94848FCF73CFF6020E4
:10480000ADF808000120ADF80A0000200490ADF8D2
:10481000140002A94148FCF7C3FF08213F48FDF7F7
:104820004CF90120ADF80A000020049002A93B4891
:10483000FCF7EFFF08213948FDF748F90120ADF8F2
:104840000A000020049002A93448FDF72FF808213F
:104850003248FDF748F90120ADF80A000020049025
:1048600002A92E48FDF788F808212C48FDF744F9E5
:1048700001212A48FCF76AFF01212848FDF775FB52
:1048800001212648FCF780FF0AB010BD30B5B0F515
:104890007A7F01DB40F2E730B1F57A7F01DB40F24D
:1048A000E731B2F57A7F01DB40F2E732B3F57A7F88
:1048B00001DB40F2E733002800DA0020002900DAAB
:1048C0000021002A00DA0022002B00DA002345F242
:1048D0000824152505FB0044104D34352C6045F2A5
:1048E0000824152505FB01440C4D38352C6045F294
:1048F0000824152505FB0244084D3C352C6045F283
:104900000824152505FB0344044D40352C6030BDBB
:104910000000024000000020406F4001000C0040F9
:1049200070B505460C461646B4F5FF7F01DD002044
:1049300070BD05EB84003146FBF7DAFF092801D191
:104940000120F5E70020F3E770B52DED028B064658
:104950000C46B0EE408AB4F5FF7F03DD0020BDECCD
:10496000028B70BD18EE105A06EB84002946FBF747
:10497000BFFF092801D10120F1E70020EFE770B562
:1049800004460025FBF746FEF320FCF744F902211C
:104990002046FBF793FE092800D000BFFBF747FE37
:1049A0000125284670BD002109E0FA4800EBC1202E
:1049B0000068401C01D108467047481CC1B240291C
:1049C000F3DBFF20F8E770B5FF2500260124FFF791
:1049D000EAFF05463E2D07DD5820FFF7D0FF08B15E
:1049E000002501E0002070BDEA4800EBC526FBF77A
:1049F00011FEE9493046FBF77BFF092801D0002072
:104A0000F1E7E648D0ED000AB0EE600A2146621CEC
:104A100094B23046FFF798FF08B9012000E000206B
:104A2000092801D10020DEE7DC48D0ED020AB0EE13
:104A3000600A2146621C94B23046FFF785FF08B930
:104A4000012000E00020092801D10020CBE7D34855
:104A5000D0ED040AB0EE600A2146621C94B23046E2
:104A6000FFF772FF08B9012000E00020092801D1FA
:104A70000020B8E7CA48D0ED000AB0EE600A21462F
:104A8000621C94B23046FFF75FFF08B9012000E0D6
:104A90000020092801D10020A5E7C148D0ED020A75
:104AA000B0EE600A2146621C94B23046FFF74CFF1C
:104AB00008B9012000E00020092801D1002092E778
:104AC000B748D0ED040AB0EE600A2146621C94B2E9
:104AD0003046FFF739FF08B9012000E0002009281F
:104AE00001D100207FE7AF48D0ED000AB0EE600AA8
:104AF0002146621C94B23046FFF726FF08B9012018
:104B000000E00020092801D100206CE7A548D0ED85
:104B1000020AB0EE600A2146621C94B23046FFF7EA
:104B200013FF08B9012000E00020092801D100206E
:104B300059E79C48D0ED040AB0EE600A2146621C99
:104B400094B23046FFF700FF08B9012000E00020D2
:104B5000092801D1002046E79348D0ED000AB0EEC5
:104B6000600A2146621C94B23046FFF7EDFE08B998
:104B7000012000E00020092801D1002033E78A4805
:104B8000D0ED020AB0EE600A2146621C94B23046B3
:104B9000FFF7DAFE08B9012000E00020092801D162
:104BA000002020E78048D0ED040AB0EE600A2146DC
:104BB000621C94B23046FFF7C7FE08B9012000E03E
:104BC0000020092801D100200DE77848D0ED000A27
:104BD000B0EE600A2146621C94B23046FFF7B4FE84
:104BE00008B9012000E00020092801D10020FAE6E0
:104BF0006E48D0ED020AB0EE600A2146621C94B203
:104C00003046FFF7A1FE08B9012000E00020092886
:104C100001D10020E7E66548D0ED040AB0EE600A55
:104C20002146621C94B23046FFF78EFE08B901207F
:104C300000E00020092801D10020D4E65C48D0ED36
:104C4000000AB0EE600A2146621C94B23046FFF7BB
:104C50007BFE08B9012000E00020092801D10020D6
:104C6000C1E65348D0ED020AB0EE600A2146621C4C
:104C700094B23046FFF768FE08B9012000E000203A
:104C8000092801D10020AEE64948D0ED040AB0EE73
:104C9000600A2146621C94B23046FFF755FE08B9FF
:104CA000012000E00020092801D100209BE64148B6
:104CB000D0ED000AB0EE600A2146621C94B2304684
:104CC000FFF742FE08B9012000E00020092801D1C9
:104CD000002088E63748D0ED020AB0EE600A21468F
:104CE000621C94B23046FFF72FFE08B9012000E0A5
:104CF0000020092801D1002075E62E48D0ED040AD5
:104D0000B0EE600A2146621C94B23046FFF71CFEEA
:104D100008B9012000E00020092801D1002062E646
:104D2000254890ED000ABCEEC00A10EE102A21467C
:104D3000631C9CB23046FFF7F3FD08B9012000E088
:104D40000020092801D100204DE61B4890ED010A02
:104D5000BCEEC00A10EE102A2146631C9CB23046FD
:104D6000FFF7DEFD08B9012000E00020092801D18D
:104D7000002038E6104890ED020ABCEEC00A10EEA2
:104D8000102A2146631C9CB23046FFF7C9FDA8B922
:104D9000012014E000000E0878563412681D00202F
:104DA000881D0020A81D0020C81D0020E81D00202F
:104DB000081E0020281E00202C1F0020002009288B
:104DC00001D100200FE6B54890ED000ABCEEC00A04
:104DD00010EE102A2146631C9CB23046FFF7A0FD5E
:104DE00008B9012000E00020092801D10020FAE5DF
:104DF000AA4890ED010ABCEEC00A10EE102A214626
:104E0000631C9CB23046FFF78BFD08B9012000E01F
:104E10000020092801D10020E5E5A04890ED020A14
:104E2000BCEEC00A10EE102A2146631C9CB230462C
:104E3000FFF776FD08B9012000E00020092801D124
:104E40000020D0E5FBF7F3FB0120CCE5024652F849
:104E50002100704750F8212000EE902AB0EE600A41
:104E6000704770B5FF2500260124FFF79CFD05461D
:104E70000DB9002070BD681EC5B2894800EBC5267B
:104E80002146621C94B23046FFF7E4FF854880ED6E
:104E9000000A2146621C94B23046FFF7DBFF8148CE
:104EA00080ED020A2146621C94B23046FFF7D2FF21
:104EB0007C4880ED040A2146621C94B23046FFF71C
:104EC000C9FF794880ED000A2146621C94B2304641
:104ED000FFF7C0FF744880ED020A2146621C94B2BD
:104EE0003046FFF7B7FF704880ED040A2146621C88
:104EF00094B23046FFF7AEFF6C4880ED000A2146C1
:104F0000621C94B23046FFF7A5FF684880ED020AA4
:104F10002146621C94B23046FFF79CFF634880ED47
:104F2000040A2146621C94B23046FFF793FF6048A2
:104F300080ED000A2146621C94B23046FFF78AFFDA
:104F40005B4880ED020A2146621C94B23046FFF7AE
:104F500081FF574880ED040A2146621C94B2304616
:104F6000FFF778FF534880ED000A2146621C94B297
:104F70003046FFF76FFF4F4880ED020A2146621C62
:104F800094B23046FFF766FF4A4880ED040A214696
:104F9000621C94B23046FFF75DFF474880ED000A7F
:104FA0002146621C94B23046FFF754FF424880ED20
:104FB000020A2146621C94B23046FFF74BFF3E487E
:104FC00080ED040A2146621C94B23046FFF742FF8E
:104FD0003A4880ED000A2146621C94B23046FFF741
:104FE00039FF364880ED020A2146621C94B23046F1
:104FF000FFF730FF314880ED040A2146621C94B26D
:105000003046FFF723FF00EE100AB8EE400A2C48A6
:1050100080ED000A2146621C94B23046FFF716FF6D
:1050200000EE100AB8EE400A254880ED010A21463C
:10503000621C94B23046FFF709FF00EE100AB8EE8A
:10504000400A1F4880ED020A2146621C94B2304695
:10505000FFF7FCFE00EE100AB8EE400A0F4880EDA4
:10506000000A2146621C94B23046FFF7EFFE00EEC4
:10507000100AB8EE400A094880ED010A2146621C78
:1050800094B23046FFF7E2FE00EE100AB8EE400A96
:10509000024880ED020A0120ECE60000381F0020E3
:1050A00000000E08681D0020881D0020A81D00209B
:1050B000C81D0020E81D0020081E0020281E00201A
:1050C0002C1F00208248B0F90000A0F2DC501E2105
:1050D00090FBF1F000EE100AB8EEC00A7D4880EDBA
:1050E000000A7B48B0F90200A0F2DC5090FBF1F01E
:1050F00000EE100AB8EEC00A774880ED000A744846
:10510000B0F90600A0F2DC5090FBF1F000EE100ABE
:10511000B8EEC00A714880ED000A6D48B0F904008D
:1051200040F24C4188423EDA6948B0F9060040F24C
:105130006C71884220DD6648B0F90200884217DDB4
:105140006348B0F9000040F24C4188420CDA6448F0
:105150000078401C6249087008460078502822D127
:105160000120604908701EE000205D4908701AE0C7
:1051700000205B49087016E05548B0F9060040F27F
:105180004C4188420CDA56480078401C544908705B
:10519000084600780A2806D100205249087002E02B
:1051A00000204F4908704A48B0F90C00B0F5966FDE
:1051B00009DD4748B0F90C00B0F5E16F03DA0120D2
:1051C000494908700CE04248B0F90C00B0F5E16FB5
:1051D00003DD00204349087002E0002042490870C6
:1051E0003B48B0F90800B0F5E16F0EDD01203F4902
:1051F00008703748B0F90400A0F57A704FF6FF71D7
:1052000001EA40003A49088002E00020374908706E
:10521000704700B537484088B0F5E16F05DA35488A
:10522000408800B22A49888006E04FF47A70284905
:10523000888000202B4908702E48008840F63401F1
:10524000884205DA2B48008800B22149C88003E073
:1052500040F2DC501E49C8802648C08840F6340120
:10526000884205DA2348C08800B21949088003E063
:1052700040F2DC50164908801E48C08940F63401CF
:10528000884205DA1B48C08900B21149488003E012
:1052900040F2DC500E4948801648408900B20C4963
:1052A00008811448808900B248811248008900B200
:1052B00088811048808800B2C8810E48008A00B2F8
:1052C00008820C48408A00B24882FFF7FBFE00BD0E
:1052D000E01E002064000020680000206C00002018
:1052E0007300002070000020710000207200002078
:1052F0009C010020F41E002000B585B0012106208D
:10530000FCF701F801210E20FBF7B4FFC020039049
:1053100002208DF8100003208DF8110000208DF878
:10532000120002208DF8130003A9FE48FBF704FDCC
:10533000022003908DF8100003208DF8110000204A
:105340008DF8120002208DF8130003A9F648FBF730
:10535000F3FC02220621F348FBF779FD0222072124
:10536000F048FBF774FD02220121EF48FBF76FFDC7
:105370005320EE4908800020ADF800000A20ADF867
:1053800002000120ADF804000020ADF80600ADF8E1
:1053900008006946E5482838FCF744FD0420ADF8CC
:1053A00000000A20ADF802000120ADF80400002042
:1053B000ADF80600ADF808006946DC482838FCF76F
:1053C00031FD0820ADF800000A20ADF802000120F0
:1053D000ADF804000020ADF80600ADF808006946FD
:1053E000D2482838FCF71EFD0C20ADF800000A203A
:1053F000ADF802000120ADF804000020ADF8060071
:10540000ADF808006946C9482838FCF70BFD0121B2
:10541000C6482838FCF7B8F901220221C3482838C9
:10542000FCF7CAFD01220421C0482838FCF7C4FD5E
:1054300001221021BD482838FCF7BEFD4FF4704012
:10544000039002208DF8100003208DF81100002039
:105450008DF8120002208DF8130003A9B448FBF761
:105460006BFC02220C21B248FBF7F1FC02220D2159
:10547000AF48FBF7ECFC02220E21AD48FBF7E7FC3E
:1054800002220F21AA48FBF7E2FC5320A949088019
:105490000020ADF800000A20ADF802000120ADF8B0
:1054A00004000020ADF80600ADF808006946A148E8
:1054B0002838FCF7B7FC0420ADF800000A20ADF84E
:1054C00002000120ADF804000020ADF80600ADF8A0
:1054D0000800694697482838FCF7A4FC0820ADF876
:1054E00000000A20ADF802000120ADF80400002001
:1054F000ADF80600ADF8080069468E482838FCF77C
:1055000091FC0C20ADF800000A20ADF8020001204B
:10551000ADF804000020ADF80600ADF808006946BB
:1055200084482838FCF77EFC012182482838FCF7A3
:105530002BF9012202217F482838FCF73DFD01228A
:1055400004217C482838FCF737FD012208217948DE
:105550002838FCF731FD0122102176482838FCF765
:105560002BFD05B000BD10B570481838008810F04C
:10557000020F33D04FF6FD706C49183908804FF692
:10558000FF50088067481030006810F0400F06D0C8
:1055900066482838FCF7C4FC674908801EE0634869
:1055A0002838FCF7BDFC6549088008460088624938
:1055B0000988884207DB614800885F490988401AEA
:1055C0005F4908800AE05C4800884FF6FF71081ABE
:1055D0005A4909880844401C5949088053481838DA
:1055E000008810F0040F33D04FF6FB704F49183984
:1055F00008804FF6FF3008804A481030006810F0ED
:10560000800F06D049482838FCF78DFC4D490880AA
:105610001EE046482838FCF786FC4B4908800846BF
:10562000008848490988884207DB4748008845497F
:105630000988401A424948800AE0424800884FF6EB
:10564000FF71081A404909880844401C3C494880B9
:1056500036481838008810F0080F33D04FF6F7702E
:105660003249183908804FF2FF7008802E481030F8
:10567000006810F0010F06D02C482838FCF756FCC3
:10568000324908801EE029482838FCF74FFC304991
:105690000880084600882D490988884207DB2C4885
:1056A00000882A490988401A254988800AE0274845
:1056B00000884FF6FF71081A254909880844401CE4
:1056C0001F49888019481838008810F0100F50D0F2
:1056D0004FF6EF701549183908804EF6FF700880B4
:1056E00011481030006810F0020F06D00F4828381B
:1056F000FCF71FFC174908803BE00C482838FCF7F2
:1057000018FC154908800846008812490988884213
:1057100024DB114800880F490988401A0849C880CD
:1057200027E0000000080240000402402804004076
:10573000000C02402808004076000020780000207D
:10574000F41E00207A0000207C0000207E00002053
:10575000800000208200002084000020774800881C
:105760004FF6FF71081A764909880844401C7549AC
:10577000C88010BD10B57448008810F0020F31D0F9
:105780004FF6FD70704908804FF6FF5008806F4853
:10579000006810F4805F06D06B481038FCF7C0FB3F
:1057A0006B4908801EE068481038FCF7B9FB69496E
:1057B00008800846008866490988884207DB6548F2
:1057C000008863490988401A5E4908810AE06048F8
:1057D00000884FF6FF71081A5E4909880844401C8A
:1057E000584908815848008810F0040F31D04FF60E
:1057F000FB70554908804FF6FF3008805348006819
:1058000010F4005F06D050481038FCF78CFB52496A
:1058100008801EE04C481038FCF785FB4F49088093
:10582000084600884C490988884207DB4B480088B5
:1058300049490988401A434948810AE04648008896
:105840004FF6FF71081A454909880844401C3D4934
:1058500048813D48008810F0080F31D04FF6F770AE
:10586000394908804FF2FF7008803848006810F40A
:10587000804F06D034481038FCF758FB3849088070
:105880001EE031481038FCF751FB364908800846C5
:10589000008833490988884207DB3248008830494C
:1058A0000988401A274988810AE02D4800884FF668
:1058B000FF71081A2B4909880844401C2149888136
:1058C0002148008810F0100F31D04FF6EF701E49BC
:1058D00008804EF6FF7008801C48006810F4004FE6
:1058E00006D019481038FCF724FB1F4908801EE039
:1058F00015481038FCF71DFB1C4908800846008835
:1059000019490988884207DB184800881649098820
:10591000401A0C49C8810AE0134800884FF6FF710D
:10592000081A124909880844401C0649C881012008
:105930000F490870FFF76DFC10BD000082000020C9
:1059400084000020F41E002010080040100C0240CB
:1059500086000020880000208A0000208C000020A3
:105960008E00002090000020920000209400002073
:105970007400002010B5FE48007800287ED1FD4854
:10598000007850BB9FEDFC0AFC4880ED000A9FEDBB
:10599000FA0A80ED010A9FEDF80A80ED020A9FEDF8
:1059A000F60AF74880ED000A9FEDF30A80ED010A40
:1059B0009FEDF10A80ED020A0020F2490860F249E9
:1059C0000860F2490860F2490860F2490860F2494B
:1059D00008600120E749087010BDF048D0ED000ACA
:1059E000E84890ED000AB8EEC00A30EE800ABDEE3D
:1059F000C00A80ED000AE948D0ED010AE24890EDC6
:105A0000000AB8EEC00A30EE800ABDEEC00A80ED92
:105A1000000AE248D0ED020ADC4890ED000AB8EE38
:105A2000C00A30EE800ABDEEC00A80ED000ADC48F4
:105A3000D0ED010AD64890ED000AB8EEC00A30EE6B
:105A4000800ABDEEC00A80ED000AD548D0ED020AFA
:105A5000D04890ED000AB8EEC00A30EE800ABDEEE4
:105A6000C00A80ED000ACE48D0ED000ACA4890ED89
:105A7000000AB8EEC00A30EE800A00E063E0BDEE36
:105A8000C00A80ED000ABB480078142856D1BD48F2
:105A90000068B849097890FBF1F000EE100AB8EE02
:105AA000C00AB64880ED000AB7480068B1490978D5
:105AB00090FBF1F000EE100AB8EEC00AAF4880ED9E
:105AC000010AB2480068AB49097890FBF1F000EE9A
:105AD000100AB8EEC00AA94880ED020AAC48006876
